:060000000A128A110C280F
:10000800FE00030EF7000A08F8000A128A11B02849
:100018000A128A110F28F001F101F201F301F4012B
:10002800F501F60183010A128A111A280A128A11A7
:100038008F200A128A1107300A128A1174200A12B4
:100048008A110A128A1158200A128A110A128A1170
:10005800A0200A128A110130FA007A0883120313C9
:10006800880783160313981C3A283B283F288312D5
:1000780003130808990083128C1E43284428472834
:100088001A0886008C120630FC001330FB00AD30D5
:10009800FA00FA0B4D28FB0B4D28FC0B4D28542871
:1000A8002F280A128A110C28831603138514831625
:1000B80003178814831203139F131F178316031340
:1000C8009F121F129F13831203131F08C33904388A
:1000D8009F001F144230F900F90B70280000080037
:1000E800F90007307906031D7A287B287F287030AD
:1000F800831603138F0406307906031D8428852888
:100108008B28831603130F088F3960388F008316E6
:1001180003130F1408008316031386018801831242
:100128000313860188018B17831603130C178B168C
:10013800831203130C1308000C3083160313990061
:100148001812831203139817831603139816831231
:1001580003130C1218160800831203130C1FB5287A
:10016800B628B92886170C130C1278088A00770E5F
:080178008300FE0E7E0E09005B
:08400000FF3FFF3FFF3FFF3FC0
:04400E00D420FF3F7C
:00000001FF
